S0130000554152545F41746D6567612E7372656327
S11300000C942A000C9434000C9434000C943400A6
S11300100C9434000C9434000C9434000C9434008C
S11300200C9434000C9434000C9434000C9434007C
S11300300C9434000C9434000C9434000C9434006C
S11300400C9434000C9434000C9434000C9434005C
S11300500C94340011241FBECFE5D8E0DEBFCDBF21
S11300600E943A000C944B000C9400005D9BFECF60
S11300708CB908958FEF8ABB83E389B98AB1886DFF
S11300808AB980B5866080BD8BB18CB18133E0F3D1
S10D00900E943600F9CFF894FFCF68
S9030000FC
